{
  "contractName": "Test",
  "abi": [
    {
      "inputs": [],
      "payable": false,
      "stateMutability": "nonpayable",
      "type": "constructor"
    },
    {
      "constant": true,
      "inputs": [],
      "name": "sayHi",
      "outputs": [
        {
          "name": "",
          "type": "string"
        }
      ],
      "payable": false,
      "stateMutability": "view",
      "type": "function"
    },
    {
      "constant": false,
      "inputs": [],
      "name": "sayBye",
      "outputs": [
        {
          "name": "",
          "type": "string"
        }
      ],
      "payable": false,
      "stateMutability": "nonpayable",
      "type": "function"
    },
    {
      "constant": false,
      "inputs": [
        {
          "name": "a",
          "type": "uint256"
        }
      ],
      "name": "getAge",
      "outputs": [
        {
          "name": "",
          "type": "uint256"
        }
      ],
      "payable": false,
      "stateMutability": "nonpayable",
      "type": "function"
    }
  ],
  "bytecode": "0x6060604052341561000f57600080fd5b6005600081905550610283806100266000396000f300606060405260043610610057576000357c0100000000000000000000000000000000000000000000000000000000900463ffffffff1680630c49c36c1461005c5780630e37008a146100ea5780636f3a693f14610121575b600080fd5b341561006757600080fd5b61006f6101af565b6040518080602001828103825283818151815260200191508051906020019080838360005b838110156100af578082015181840152602081019050610094565b50505050905090810190601f1680156100dc5780820380516001836020036101000a031916815260200191505b509250505060405180910390f35b34156100f557600080fd5b61010b60048080359060200190919050506101f2565b6040518082815260200191505060405180910390f35b341561012c57600080fd5b610134610200565b6040518080602001828103825283818151815260200191508051906020019080838360005b83811015610174578082015181840152602081019050610159565b50505050905090810190601f1680156101a15780820380516001836020036101000a031916815260200191505b509250505060405180910390f35b6101b7610243565b6040805190810160405280601581526020017fe4bda0e5a5bdefbc8ce8bfaae4b8bde783ade5b7b40000000000000000000000815250905090565b600081600054019050919050565b610208610243565b6040805190810160405280601581526020017fe5868de8a781efbc8ce68891e79a84e783ade5b7b40000000000000000000000815250905090565b6020604051908101604052806000815250905600a165627a7a723058205168b8a6f51ce18332c2ec449e8498d17078e500a27900b5886b2e02bcc977d00029",
  "source": "pragma solidity ^0.4.16;\n\n\ncontract Test {\n\n    uint age;\n\n    function Test() public {\n        age = 5;\n    }\n    \n    function sayHi() constant returns (string) {\n        return \"你好，迪丽热巴\";\n    }\n\n    function sayBye() returns (string) {\n        return \"再见，我的热巴\";\n    }\n\n    function getAge(uint a) public returns(uint) {\n        return age + a;\n    }\n}",
  "sourcePath": "/Users/kongdejian/Desktop/truffle_node/contracts/Test.sol",
  "compiler": {
    "name": "solc",
    "version": "0.4.19+commit.c4cbbb05.Emscripten.clang"
  },
  "schemaVersion": "2.0.0",
  "updatedAt": "2018-04-15T04:15:34.716Z"
}